:100000000C945D000C9485000C9485000C94850084
:100010000C9485000C9485000C9485000C9485004C
:100020000C9485000C9485000C9485000C9485003C
:100030000C9485000C9485000C9485000C9485002C
:100040000C949A030C9485000C94BD020C94EF025E
:100050000C9485000C9485000C9485000C9485000C
:100060000C9485000C94850000000008000201003B
:100070000003040700000000000000000102040863
:100080001020408001020408102001020408102002
:10009000040404040404040402020202020203032E
:1000A0000303030300000000250028002B000000CC
:1000B0000000240027002A001F0311241FBECFEFD9
:1000C000D8E0DEBFCDBF11E0A0E0B1E0E2E9F8E0AA
:1000D00002C005900D92A631B107D9F721E0A6E143
:1000E000B1E001C01D92AE3BB207E1F710E0CAEBF0
:1000F000D0E004C02297FE010E944304C83BD10710
:10010000C9F70E948B030C9447040C94000026E06E
:1001100040E855E260E070E088E191E00E945B0217
:1001200061E0809104010E94090161E08091020177
:100130000E94090161E0809100010C94090188E1AD
:1001400091E00E94780118161906CCF588E191E03B
:100150000E949101909317018093160181309105BF
:1001600061F01CF4892B39F008958230910589F0F3
:100170000397B1F0089560E001C061E0809104014F
:100180000E94420160E0809102010E94420160E011
:1001900012C060E0809104010E94420161E0F3CF4F
:1001A00060E0809104010E94420160E080910201C0
:1001B0000E94420161E0809100010C944201089587
:1001C000833081F028F4813099F08230A1F00895D5
:1001D0008730A9F08830B9F08430D1F48091800064
:1001E0008F7D03C0809180008F7780938000089579
:1001F00084B58F7702C084B58F7D84BD08958091CA
:10020000B0008F7703C08091B0008F7D8093B000E5
:100210000895CF93DF9390E0FC01E458FF4F2491C1
:10022000FC01E057FF4F8491882349F190E0880F4B
:10023000991FFC01E255FF4FA591B4918C559F4F3A
:10024000FC01C591D4919FB7611108C0F8948C91BD
:10025000209582238C93888182230AC0623051F4D6
:10026000F8948C91322F309583238C938881822B44
:10027000888304C0F8948C91822B8C939FBFDF916C
:10028000CF9108950F931F93CF93DF931F92CDB714
:10029000DEB7282F30E0F901E859FF4F8491F901CA
:1002A000E458FF4F1491F901E057FF4F04910023E8
:1002B000C9F0882321F069830E94E0006981E02F62
:1002C000F0E0EE0FFF1FEC55FF4FA591B4919FB7E3
:1002D000F8948C91611103C01095812301C0812B8A
:1002E0008C939FBF0F90DF91CF911F910F91089535
:1002F000FC01818D228D90E0805C9F4F821B9109D3
:100300008F7399270895FC01918D828D981731F094
:10031000828DE80FF11D858D90E008958FEF9FEF9E
:100320000895FC01918D828D981761F0828DDF0117
:10033000A80FB11D5D968C91928D9F5F9F73928FD8
:1003400090E008958FEF9FEF089585E193E0892B6A
:1003500049F080E090E0892B29F00E94150381117B
:100360000C9400000895FC01848DDF01A80FB11DDD
:10037000A35ABF4F2C91848D90E001968F739927DB
:10038000848FA689B7892C93A089B1898C918064C8
:100390008C93938D848D981306C00288F389E02D89
:1003A00080818F7D80830895CF93DF93EC01888DCA
:1003B0008823C9F0EA89FB89808185FD05C0A88969
:1003C000B9898C9186FD0FC00FB607FCF5CF8081EF
:1003D00085FFF2CFA889B9898C9185FFEDCFCE0139
:1003E0000E94B301E7CFDF91CF910895CF92DF92C2
:1003F000FF920F931F93CF93DF931F92CDB7DEB77A
:100400006C0181E0D60158968C9358975B969C912D
:100410005B975C968C915C97981307C05096ED9112
:10042000FC915197808185FD2EC0F601038D10E06F
:100430000F5F1F4F0F731127F02EF601848DF812F6
:1004400011C00FB607FCF9CFD6015096ED91FC9183
:100450005197808185FFF1CFC60169830E94B30166
:100460006981EBCF838DE80FF11DE35AFF4F608365
:10047000D6015B960C935B975296ED91FC91539746
:10048000808180620CC0D6015696ED91FC91579701
:1004900060835096ED91FC915197808180648083B8
:1004A00081E090E00F90DF91CF911F910F91FF902D
:1004B000DF90CF900895BF92CF92DF92EF92FF929C
:1004C000CF93DF93EC016A017B01B22EE889F989B1
:1004D00082E08083411581EE580761057105A1F026
:1004E00060E079E08DE390E0A70196010E941F048F
:1004F000215031094109510956954795379527955E
:10050000211580E1380798F0E889F989108260E8C0
:1005100074E88EE190E0A70196010E941F0421502B
:100520003109410951095695479537952795EC852D
:10053000FD853083EE85FF852083188EEC89FD894B
:10054000B082EA89FB89808180618083EA89FB89A6
:10055000808188608083EA89FB89808180688083CC
:10056000EA89FB8980818F7D8083DF91CF91FF9025
:10057000EF90DF90CF90BF9008951F920F920FB62B
:100580000F9211242F938F939F93EF93FF93E091FA
:100590002801F09129018081E0912E01F0912F0135
:1005A00082FD12C09081809131018F5F8F73209105
:1005B0003201821751F0E0913101F0E0E85EFE4F28
:1005C000958F8093310101C08081FF91EF919F91C0
:1005D0008F912F910F900FBE0F901F9018951F9223
:1005E0000F920FB60F9211242F933F934F935F9367
:1005F0006F937F938F939F93AF93BF93EF93FF93EB
:1006000088E191E00E94B301FF91EF91BF91AF911A
:100610009F918F917F916F915F914F913F912F911A
:100620000F900FBE0F901F90189588E191E00E94E7
:10063000780121E0892B09F420E0822F089510929F
:100640001B0110921A0188EE93E0A0E0B0E08093C5
:100650001C0190931D01A0931E01B0931F018AE01D
:1006600091E0909319018093180185EC90E09093AC
:1006700025018093240184EC90E0909327018093DE
:10068000260180EC90E0909329018093280181EC71
:1006900090E090932B0180932A0182EC90E090935C
:1006A0002D0180932C0186EC90E090932F01809394
:1006B0002E011092310110923201109233011092EA
:1006C00034010895CF92DF92EF92FF920F931F9320
:1006D000CF93DF937C016A01EB0100E010E00C1581
:1006E0001D0571F06991D701ED91FC910190F081A8
:1006F000E02DC7010995892B19F00F5F1F4FEFCF30
:10070000C801DF91CF911F910F91FF90EF90DF9083
:10071000CF90089508950E94E4030E948A030E94E6
:100720008700C5EAD1E00E949F002097E1F30E9474
:10073000A501F9CF1F920F920FB60F9211242F939C
:100740003F938F939F93AF93BF938091B601909106
:10075000B701A091B801B091B9013091B50123E082
:10076000230F2D3720F40196A11DB11D05C026E8E9
:10077000230F0296A11DB11D2093B5018093B601F0
:100780009093B701A093B801B093B9018091BA01D9
:100790009091BB01A091BC01B091BD010196A11D3A
:1007A000B11D8093BA019093BB01A093BC01B0939B
:1007B000BD01BF91AF919F918F913F912F910F906C
:1007C0000FBE0F901F901895789484B5826084BDF9
:1007D00084B5816084BD85B5826085BD85B5816045
:1007E00085BDEEE6F0E0808181608083E1E8F0E0A5
:1007F0001082808182608083808181608083E0E8D4
:10080000F0E0808181608083E1EBF0E080818460B2
:100810008083E0EBF0E0808181608083EAE7F0E0B4
:100820008081846080838081826080838081816018
:1008300080838081806880831092C1000895A1E246
:100840001A2EAA1BBB1BFD010DC0AA1FBB1FEE1F4A
:10085000FF1FA217B307E407F50720F0A21BB30B95
:10086000E40BF50B661F771F881F991F1A9469F711
:1008700060957095809590959B01AC01BD01CF016D
:100880000895EE0FFF1F0590F491E02D0994F89460
:02089000FFCF98
:100892000B000C000D0000000000F601620378015D
:0608A20091018301D40165
:107E0000112484B714BE81FFF0D085E080938100F7
:107E100082E08093C00088E18093C10086E0809377
:107E2000C20080E18093C4008EE0C9D0259A86E02C
:107E300020E33CEF91E0309385002093840096BBD3
:107E4000B09BFECF1D9AA8958150A9F7CC24DD24C4
:107E500088248394B5E0AB2EA1E19A2EF3E0BF2EE7
:107E6000A2D0813461F49FD0082FAFD0023811F036
:107E7000013811F484E001C083E08DD089C08234E0
:107E800011F484E103C0853419F485E0A6D080C0E4
:107E9000853579F488D0E82EFF2485D0082F10E0AE
:107EA000102F00270E291F29000F111F8ED06801E7
:107EB0006FC0863521F484E090D080E0DECF843638
:107EC00009F040C070D06FD0082F6DD080E0C81688
:107ED00080E7D80618F4F601B7BEE895C0E0D1E017
:107EE00062D089930C17E1F7F0E0CF16F0E7DF06D8
:107EF00018F0F601B7BEE89568D007B600FCFDCFD4
:107F0000A601A0E0B1E02C9130E011968C91119780
:107F100090E0982F8827822B932B1296FA010C0160
:107F200087BEE89511244E5F5F4FF1E0A038BF0790
:107F300051F7F601A7BEE89507B600FCFDCF97BE46
:107F4000E89526C08437B1F42ED02DD0F82E2BD052
:107F50003CD0F601EF2C8F010F5F1F4F84911BD097
:107F6000EA94F801C1F70894C11CD11CFA94CF0C13
:107F7000D11C0EC0853739F428D08EE10CD085E9AC
:107F80000AD08FE07ACF813511F488E018D01DD067
:107F900080E101D065CF982F8091C00085FFFCCF94
:107FA0009093C60008958091C00087FFFCCF809118
:107FB000C00084FD01C0A8958091C6000895E0E648
:107FC000F0E098E1908380830895EDDF803219F02E
:107FD00088E0F5DFFFCF84E1DECF1F93182FE3DFCA
:107FE0001150E9F7F2DF1F91089580E0E8DFEE27F6
:047FF000FF270994CA
:027FFE00040479
:0400000300007E007B
:00000001FF
