:1000000050C100007FC100007DC100007BC1000025
:1000100079C1000077C1000075C1000073C1000004
:1000200071C100006FC100006DC100006BC1000014
:1000300041C3000067C1000065C1000063C100004A
:1000400061C100005FC100005DC100005BC1000034
:1000500059C1000057C1000055C100000C94140A9A
:1000600051C100000C94470D0C947D0D4BC1000054
:1000700049C1000047C1000045C1000043C1000064
:1000800041C100003FC100003DC100003BC1000074
:1000900039C1000037C1000035C1000033C1000084
:1000A00031C100002FC100002DC100002BC1000094
:1000B00029C1000027C1000025C1000023C10000A4
:1000C00021C100001FC100001DC100001BC10000B4
:1000D00019C1000017C1000015C1000013C10000C4
:1000E00011C10000070B0A0BF90AFD0A030B410BB3
:1000F0000E0B120B180B1C0B200B260B2A0B2E0BB6
:10010000410B340B380B3C0B2C20646174613D3087
:1001100078003A20627974652D6164647265737346
:100120003D3078003A20776F72642D6164647265A7
:1001300073733D3078004E657874207265706F720D
:10014000743A20005361766564207265706F727432
:10015000733A20002D2D2D2D2D2D2D2D2D2D2D2DB6
:100160002D2D2D2D2D2D2D004170706C6963617426
:10017000696F6E204D6F6E69746F720000000A0B1C
:1001800002090C0D0E080703040100000000000026
:10019000000000000000000000000000000000005F
:1001A000000000000000000012111000000000001C
:1001B000000000000000000000000000000000003F
:1001C000000001021020200808102040102040806C
:1001D000020102010804020101020408102040800B
:1001E0008040201008040201800402018040201099
:1001F00008040201080402010102040810204080E2
:1002000001020408102040800505050507050808BF
:100210000808020202020A0A080804040404010190
:1002200001010101010103030303030303030407A5
:1002300007070C0C0C0C0C0C0C0C0202020206063C
:100240000606060606060B0B0B0B0B0B0B0B000032
:1002500020002300260029002C002F00320000017E
:10026000000003010601090100002200250028000A
:100270002B002E00310034000201000005010801AE
:100280000B0100002100240027002A002D0030006F
:10029000330001010000040107010A01BA05AF0D96
:1002A000DE0511241FBECFEFD1E2DEBFCDBF00E0DF
:1002B0000CBF12E0A0E0B2E0EEEAF9E200E00BBF12
:1002C00002C007900D92A036B107D9F724E0A0E64E
:1002D000B2E001C01D92AA30B207E1F712E0C0EA15
:1002E000D2E000E006C022970109FE010BBF0E9488
:1002F0003011CC39D10780E00807A9F70E94C2105D
:100300000C94C6147DCEFC017183608353834283B9
:100310001782108611861286089563FF02C088E254
:1003200001C088E06770682B88E190E00FB6F89410
:10033000A895809360000FBE60936000809160007C
:100340008064809360000895A89508958F929F928D
:10035000AF92BF92CF92EF920F931F93CF93DF9301
:10036000EB0148015901BA01CE010E94300E2E2D39
:1003700030E0B501A401CE010E94C40ECC2069F08A
:10038000CE01DF91CF911F910F91EF90CF90BF9051
:10039000AF909F908F900C94540EDF91CF911F914E
:1003A0000F91EF90CF90BF90AF909F908F90089556
:1003B000FC01208131812E5F3F4F8281938168173C
:1003C000790714F0C901089547E0469FC001479F8F
:1003D000900D1124820F931F0895EF92FF920F93B7
:1003E0001F93CF93DF931F92CDB7DEB78B017A01B6
:1003F000041B150B215058F0C8018E0D9F1D298339
:100400000E949E14F70181937F012981F3CF0F9001
:10041000DF91CF911F910F91FF90EF9008950F936F
:100420001F93CF93DF938C01EB01FC0160817181FD
:1004300022E0AE01D2DF28812F3F11F4188208C0DC
:10044000F8018281938130E0821793070CF488834E
:10045000298130E0F80182819381281739070CF057
:100460001982DF91CF911F910F9108950F931F93E0
:10047000CF93DF938C01EA019BDF27E0AE01BC0143
:10048000C801ABDF88819A8198838A83DF91CF91FD
:100490001F910F9108957F928F929F92AF92BF927A
:1004A000CF92DF92EF92FF920F931F93CF93DF9340
:1004B000CDB7DEB72E970FB6F894DEBF0FBECDBF17
:1004C0004C015B01BE01645F7F4F4E87A8DF4E8504
:1004D000442321F08C85882309F46BC068E671E021
:1004E000C5010E94570E64E571E0C5010E94570ED8
:1004F0000C8510E020E030E0CC24C3944AE0E42EE8
:1005000044E451E0B501C40121DF0D8510E020E095
:1005100030E046E351E0B501C40118DF712C8C8551
:10052000781608F046C0672D70E0AE014F5F5F4F50
:10053000C4019CDF4AE050E0672DC5010E94D00E47
:10054000188619861A861B8689819A81AB818887CD
:100550009987AA87C884D984EA84FB8464E271E01D
:10056000C5010E94300E20E130E0B701A601C501AF
:100570000E94C40E62E171E0C5010E94300EB70115
:10058000A601440F551F661F771F20E130E0C5010B
:100590000E94C40E0C811D812E813F81CC24C39406
:1005A00090E1E92E48E051E0B501C401CFDE73943B
:1005B000B6CF2E960FB6F894DEBF0FBECDBFDF913B
:1005C000CF911F910F91FF90EF90DF90CF90BF9050
:1005D000AF909F908F907F900895EF92FF920F932E
:1005E0001F93CF93DF931F92CDB7DEB77B018A01B4
:1005F000260F2E1561F0F80161918F01C701298343
:100600000E94A614FFEFEF1AFF0A2981F2CF0F9084
:10061000DF91CF911F910F91FF90EF900895AB0163
:10062000FC016081718122E0D8CFCF93DF93EC0190
:10063000BFDEAE014C5F5F4F27E0BC01CE01DF9112
:10064000CF91CBCFCF93DF931F921F92CDB7DEB761
:100650008C017B01BE016F5F7F4FE1DEF7012081DE
:1006600031814281F8012483358346836A8170E0B9
:10067000C801DBDF2A812F5F2A8330E0F801828105
:1006800093812817390714F01A8203C089818F5F7C
:100690008983BE016F5F7F4FC801C1DF2BE088E116
:1006A00090E00FB6F894A895809360000FBE209359
:1006B0006000FFCF6DB77EB76F5F7F4F82E593E03D
:1006C000C1DF8BE293E00E94410F85E393E00E943B
:1006D000410F8DE393E055C32AE0289FF001299F45
:1006E000F00D1124E559FD4F8281938184369105E7
:1006F0009CF4848195818436910544F486819781A8
:100700008436910534F083E090E0089582E090E033
:10071000089584E090E0089581E090E00895CF93FB
:10072000DF93EC01D9DF25E02C9FF0012D9FF00D28
:100730001124E80FF91FEE0FFF1FE559FD4F8081CF
:1007400091818456910991838083DF91CF9108959F
:100750000F931F93CF93DF938C01BEDF9C018AE040
:10076000809FF001819FF00D1124E559FD4FC0815C
:1007700022303105A9F024F42130310541F02BC09D
:100780002330310529F12430310599F024C08481CA
:1007900095811816190614F4C1E009C0C2E007C01B
:1007A000C095CC1FCC27CC1F84E08C1BC82FD0E079
:1007B00014C0C295C695C370D0E02197C330D1054F
:1007C00050F4C45CDD4FC881DD27C7FDD09505C05E
:1007D000C6E0D0E002C0C0E0D0E0C801A0DFCE019A
:1007E000DF91CF911F910F910895EF92FF920F9398
:1007F0001F93CF93DF932BE6E22E22E0F22E8C01A3
:10080000C0E0D0E0F701808191811816190634F418
:10081000CE019EDFF8019183808303C0F80111822D
:1008200010822196FAE0EF0EF11C0E5F1F4FC031CF
:10083000D10541F7DF91CF911F910F91FF90EF907C
:1008400008950F931F93CF93DF93809134038823F0
:1008500009F455C08BE093E0C8DF0BE013E0C0E083
:10086000D0E0F801819191918F018330910541F1A0
:1008700034F48130910551F0029739F11DC0853073
:10088000910549F08CF0069701F116C020E03FEF8A
:1008900040E050E01EC0BE018DE393E07FD4672BA3
:1008A000682B692B69F008C0BE018DE393E076D414
:1008B000672B682B692B49F020E030E0A90109C0C3
:1008C00020E03FEF4FEF50E004C020E030E04FEF7A
:1008D00050E0BE018DE393E0FCD32196C031D105F9
:1008E00009F0BFCF8DE393E0E0D280913B0390917C
:1008F0003C038C599F4F90933C0380933B03DF91C3
:10090000CF911F910F9108950F931F93CF93DF9372
:100910008C016AE072E086E693E00E94670EF801BF
:1009200084818F7129E0829FC0011124059625E002
:1009300030E06AE039962817390709F445C0DF012D
:1009400014974C91C42FD0E04F7150E041505109A1
:10095000649FD001659FB00D1124A559BD4F11961C
:10096000DC93CE93EF012397488150E0542F442726
:1009700021967881472B13965C934E93129721967C
:10098000488150E0542F44277081472B15965C9383
:100990004E931497E801C20FD31F4D8150E0542F9E
:1009A00044277E81472B17965C934E9316974F8171
:1009B00050E0542F44277885472B19965C934E932B
:1009C0001897275F3F4FB6CF65E172E086E693E068
:1009D000DF91CF911F910F910C94670ECF9361E03F
:1009E00084E050D660E085E04DD6C6E160E08C2F13
:1009F00049D6CE5FC433D1F78DE393E0D5D18DE3F3
:100A000093E053D262E38DE393E0CFD426E040E05D
:100A100052EC61E070E086E693E0D9D740E355E719
:100A200060E070E086E693E00E94170F41E066E622
:100A300073E082E593E02FDD68E070E082E593E00B
:100A4000CF916BCC0F931F93CF93DF93EC01062FC5
:100A5000623058F119814AE050E0612F86E693E058
:100A60000E94D60E123059F0F0F01D30B1F01E3059
:100A7000F1F460E084E03FD61092310314C061E2EB
:100A800072E086E693E00E94670E602F70E0CE0170
:100A90003BDF81E08093340306C061E084E02BD625
:100AA00081E08093310380E003C083E001C082E0F5
:100AB000DF91CF911F910F9108951F93CF93DF93F3
:100AC000EC01162F69E272E086E693E00E94670E61
:100AD00061E372E086E693E00E94670E612FCE012B
:100AE000DF91CF911F91AECFAF92BF92CF92DF92A5
:100AF000EF92FF920F931F93CF93DF9300D000D01C
:100B0000CDB7DEB75B016A017C0100E010E00C1597
:100B10001D05FCF40E5F1F4FA801425051099801BA
:100B2000B501CE0101960E947E1060E070E0CE011A
:100B300001960E946C1040E150E060E070E00E947D
:100B40004E13F70161937F01CE0101960E94410F80
:100B5000DECF26960FB6F894DEBF0FBECDBFDF9175
:100B6000CF911F910F91FF90EF90DF90CF90BF90AA
:100B7000AF9008954AE050E064EF71E082E593E0C1
:100B8000C2DB22E530E047E060E470E08DE393E013
:100B90007BD261E572E085E393E00E94A80F61E5F6
:100BA00072E08BE293E00E94A80F21E234E044E679
:100BB00050E060E070E080E692E0AAC082CDAF92A3
:100BC000BF92CF92DF92EF92FF920F931F93CF933A
:100BD000DF9300D000D0CDB7DEB7EDB6FEB682E52C
:100BE00093E0B2DB80913203909133039C012F5F3D
:100BF0003F4F3093330320933203AA2797FDA095EC
:100C0000BA2F8093590390935A03A0935B03B09338
:100C10005C0386E693E0CCD5892B09F444C04AE016
:100C200066E673E0CE0101960E941D0FBE016F5F64
:100C30007F4F8BE293E00E940E10CE0101960E943E
:100C4000410F65E372E086E693E00E94530E009147
:100C50002F0310913003015011095801B694A79445
:100C60008DB79EB78A199B090FB6F8949EBF0FBE29
:100C70008DBF01966C016BE273E0CE0101960E947C
:100C80000610A801BE016F5F7F4FC6012DDFCE01A8
:100C900001960E94410F6A2DC6010FDF0FB6F8942E
:100CA000FEBE0FBEEDBE80E692E040D085E058D596
:100CB00020910602309107022817390721F09093FE
:100CC00007028093060216E1812F4AD51E5F143376
:100CD000D9F7809108029091090201979093090237
:100CE000809308020FB6F894FEBE0FBEEDBE2696A6
:100CF0000FB6F894DEBF0FBECDBFDF91CF911F912D
:100D00000F91FF90EF90DF90CF90BF90AF9008953C
:100D1000FC0181E080831182128213821482458358
:100D20005683678370873287218708950F931F93B7
:100D3000CF93DF93EC0188818823F1F0BFD3098141
:100D40001A812B813C81601B710B820B930B0D81EF
:100D50001E812F813885601771078207930760F025
:100D6000ADD369837A838B839C83E985FA85DF9190
:100D7000CF911F910F911994DF91CF911F910F91F6
:100D80000895CF93DF93EC0188859985009711F042
:100D90000E94DB118E8187FD04C060E0DF91CF915E
:100DA00071C4DF91CF910895CF93DF93EC018E81D1
:100DB00087FD05C061E066D460E08E819CD481E04F
:100DC0008983DF91CF910895EF92FF920F931F9344
:100DD000CF93DF93EC017B0188859985009711F013
:100DE0000E94DB119D858A85981303C083E090E003
:100DF00002C084E090E08E9D80018F9D100D9E9D2D
:100E0000100D11241D830C83C8010E944311998782
:100E10008887009741F0A80160E070E00E9490147C
:100E2000FB82EA8204C01D821C821B821A82DF912F
:100E3000CF911F910F91FF90EF900895FC0121E059
:100E400095858285981320E0CB0136E096958795AD
:100E50003A95E1F7482F43704587CB0154E09695CA
:100E600087955A95E1F7382F33703287CB019695E5
:100E700087959695879583708387862F837084875F
:100E800081E06F3F710511F008F080E0808380857C
:100E90009185892B49F091E0431390E0921721F05E
:100EA00062817381CF0190CF0895CF92DF92EF924C
:100EB000FF920F931F93CF93DF93CDB7DEB72997A0
:100EC0000FB6F894DEBF0FBECDBF8C01DC011896C3
:100ED0008D919C911997892B09F498C0FBD2F80148
:100EE000C684D784E088F1886C197D098E099F0932
:100EF000623371058105910588F3F89484819581A9
:100F00009A838983A085B1857D01EFEFEE1AFE0AF1
:100F10008C918987D8019C9152960D90BC91A02DFF
:100F2000F8018489992309F42EC09C91982B988705
:100F30009C91809589238F838F818E8388E08D8318
:100F400058856F8149853D812E8189819A81F7017C
:100F50005C9347FD252F3A952C93262F39F0441F9B
:100F600000C000006C93000000C0F2CF38E0419157
:100F70006C930000019761F7F801B38BA28B49874E
:100F80003D832E8338C09C91982B98879C918095A7
:100F900089238F838F818C8388E08B8358856F8131
:100FA00049853B812C8189819A81F7015C9347FDBA
:100FB000252F00C000C02C9300C000C000C000C09E
:100FC00000C06C930000262F3A9541F0441F0000AA
:100FD00000C000C000C000C000C0E8CF38E04191B0
:100FE00000C06C9300C0019709F7F801B38BA28B86
:100FF00049873B832C839A83898378946BD2D80169
:101000001E966D937D938D939C93519729960FB661
:10101000F894DEBF0FBECDBFDF91CF911F910F912E
:10102000FF90EF90DF90CF9008951F93CF93DF93C1
:10103000EC01162F8981882329F08E8187FD02C05B
:1010400060E020D31E838981882331F061E0812F05
:1010500019D360E0812F4FD3812F90E0FC01E85F2E
:10106000FD4FE491F0E0EE0FFF1FE859FD4F259191
:1010700034913B8B2A8BFC01EE53FE4F84918C8B79
:10108000DF91CF911F910895EF92FF920F931F93DD
:10109000CF93DF931F92CDB7DEB77C018B01FC01AC
:1010A000118217821186108616861786108A118A79
:1010B000B9014983C3DEB801C70186DE4981642FC7
:1010C000C7010F90DF91CF911F910F91FF90EF908B
:1010D000ACCFCF92DF92EF92FF920F931F93CF93FB
:1010E000DF93FC01828193816817790708F04DC076
:1010F000CA01AA27BB27182FC32ED42EE52EFF2402
:10110000DC2DC22F0781002361F0809FC0011124D4
:10111000192FC09E60011124DD2D209FC0011124D4
:10112000C92FF5848285A085B185F81208C0CB014E
:10113000880F991F860F971F8A0F9B1F17C0CB011F
:10114000880F991F880F991F8A0F9B1F452F5527BE
:1011500066277727DC01AF0DB11D002329F0409FE2
:1011600090011124232F01C0242F2C932285DC0110
:10117000A20FB11D1C932385DC01A20FB11DDC93CE
:101180002485FC01E20FF11DC083DF91CF911F91F7
:101190000F91FF90EF90DF90CF9008956F927F9224
:1011A0008F929F92AF92BF92CF92DF92EF92FF9277
:1011B0000F931F93CF93DF93FC0182819381681774
:1011C000790708F0DEC025850285808591858780B6
:1011D000422F50E07384648420135DC08B01000FA4
:1011E000111F060F171F080F191F882009F43DC093
:1011F000912CA12CB12CF801E40FF51F608170E057
:10120000762F6627882777FD8095982FA501940172
:10121000D9D77901DD24CC24F801E70DF11D6081D7
:1012200070E0762F6627882777FD8095982FA50197
:101230009401C8D7B42FA32F922F8827C82AD92A60
:10124000EA2AFB2AF801E60DF11D608170E0762F95
:101250006627882777FD8095982FA5019401B2D73E
:10126000C22AD32AE42AF52A8FC0F801E40FF51F19
:101270008081F801E70DF11DC080D12CE12CF12C0B
:10128000FE2CED2CDC2CCC24E82AF801E60DF11D17
:101290008081C82A79C0EB01CC0FDD1FCC0FDD1F88
:1012A000C80FD91F10E0882009F452C0912CA12C3E
:1012B000B12CFE01E40FF51F608170E0762F6627E8
:1012C000882777FD8095982FA50194017BD7F22E72
:1012D000EE24DD24CC24FE01E00FF11F608170E0DC
:1012E000762F6627882777FD8095982FA501940192
:1012F00069D7D90199278827C82AD92AEA2AFB2A37
:10130000FE01E60DF11D608170E0762F66278827CB
:1013100077FD8095982FA501940154D7C22AD32A2E
:10132000E42AF52AC70DD11D688170E0762F662763
:10133000882777FD8095982FA501940143D7B42F76
:10134000A32F922F8827C82AD92AEA2AFB2A1CC051
:10135000FE01E40FF51F8081FE01E00FF11FC08048
:10136000D12CE12CF12C7601DD24CC24F82AFE01CD
:10137000E60DF11D8081C82AC70DD11D8881D82AAC
:1013800003C0C12CD12C7601C701B601DF91CF91EA
:101390001F910F91FF90EF90DF90CF90BF90AF9093
:1013A0009F908F907F906F900895FF920F931F935F
:1013B000CF93DF93EC01FF24F394F60E2F81F21606
:1013C00069F1088519852150A9F06F3F51F430E08B
:1013D00040E050E06FEF7FEF80E090E015D7B9017B
:1013E0000BC08F2D90E0982F88270197622F70E017
:1013F000D5D602C060E070E0F8018C819D81AF011C
:10140000401B510B4817590740F44081469FC001CB
:10141000479F900D11249193F0CFFF82DF91CF91E0
:101420001F910F91FF9008951F920F920FB60F9288
:1014300011242F933F938F939F93AF93BF938091EA
:101440005E0390915F03A0916003B09161033091BE
:101450005D0323E0230F2D3720F40196A11DB11D5C
:1014600005C026E8230F0296A11DB11D20935D0340
:1014700080935E0390935F03A0936003B093610336
:101480008091620390916303A0916403B09165031E
:101490000196A11DB11D8093620390936303A093F5
:1014A0006403B0936503BF91AF919F918F913F917A
:1014B0002F910F900FBE0F901F9018952FB7F89493
:1014C00060915E0370915F0380916003909161036E
:1014D0002FBF08953FB7F894809162039091630302
:1014E000A0916403B091650326B5A89B05C02F3F6A
:1014F00019F00196A11DB11D3FBF6627782F892FD6
:101500009A2F620F711D811D911D42E0660F771F9A
:10151000881F991F4A95D1F70895789484B5826001
:1015200084BD84B5816084BD85B5826085BD85B587
:10153000816085BDEEE6F0E0808181608083E1E836
:10154000F0E010828081826080838081816080836E
:10155000E0E8F0E0808181608083E1EBF0E0808171
:1015600084608083E0EBF0E0808181608083E1E94A
:10157000F0E0808182608083808181608083E0E907
:10158000F0E0808181608083E1EAF0E08081826028
:101590008083808181608083E0EAF0E080818160E7
:1015A0008083E1E2F1E080818260808380818160DC
:1015B0008083E0E2F1E0808181608083EAE7F0E00F
:1015C000808184608083808182608083808181606B
:1015D00080838081806880831092C100089590E0AC
:1015E000FC013197E231F10508F04BC0EE58FF4F96
:1015F00027C6809180008F7703C0809180008F7D07
:1016000080938000089580918000877FF9CF84B512
:101610008F7702C084B58F7D84BD08958091B0001E
:101620008F7703C08091B0008F7D8093B0000895C4
:10163000809190008F7707C0809190008F7D03C0CC
:1016400080919000877F8093900008958091A00002
:101650008F7707C08091A0008F7D03C08091A0008C
:10166000877F8093A0000895809120018F7707C025
:10167000809120018F7D03C080912001877F80931E
:1016800020010895CF93DF9390E0FC01EE53FE4FCD
:101690002491FC01E85FFD4F8491882349F190E09B
:1016A000880F991FFC01EE57FD4FA591B491885901
:1016B0009D4FFC01C591D4919FB7611108C0F8946A
:1016C0008C91209582238C93888182230AC062307A
:1016D00051F4F8948C91322F309583238C93888128
:1016E000822B888304C0F8948C91822B8C939FBFAB
:1016F000DF91CF9108950F931F93CF93DF931F92A4
:10170000CDB7DEB7282F30E0F901E458FE4F8491C1
:10171000F901EE53FE4F1491F901E85FFD4F04917A
:101720000023C1F0882319F0698359DF6981E02F14
:10173000F0E0EE0FFF1FE859FD4FA591B4919FB760
:10174000F8948C91611103C01095812301C0812B05
:101750008C939FBF0F90DF91CF911F910F910895B0
:10176000CF93DF93282F30E0F901E458FE4F8491A6
:10177000F901EE53FE4FD491F901E85FFD4FC4919A
:10178000CC2389F081112BDFEC2FF0E0EE0FFF1F4F
:10179000E25BFD4FA591B4912C912D2381E090E067
:1017A00021F480E002C080E090E0DF91CF910895C5
:1017B000FC01818D228D90E0805C9F4F821B9109FE
:1017C0008F7399270895FC01918D828D981731F0C0
:1017D000828DE80FF11D858D90E008958FEF9FEFCA
:1017E0000895FC01918D828D981761F0828DDF0143
:1017F000A80FB11D5D968C91928D9F5F9F73928F04
:1018000090E008958FEF9FEF089586EA9DE0892B81
:1018100039F080E090E0892B19F098D1811125C032
:1018200080E090E0892B41F080E090E0892B21F06E
:101830000E94000081111CC080E090E0892B41F0E3
:1018400080E090E0892B21F00E940000811113C0FC
:1018500080E090E0892BA1F080E090E0892B81F07E
:101860000E94000081110AC008950E940000D8CF94
:101870000E940000E1CF0E940000EACF0C9400001B
:101880000895FC01848DDF01A80FB11DA35ABF4F3D
:101890002C91848D90E001968F739927848FA6896F
:1018A000B7892C93A089B1898C9180648C93938D96
:1018B000848D981306C00288F389E02D80818F7D86
:1018C00080830895CF93DF93EC01888D8823C1F046
:1018D000EA89FB89808185FD05C0A889B9898C9139
:1018E00086FD0EC00FB607FCF5CF808185FFF2CFD5
:1018F000A889B9898C9185FFEDCFCE01C2DFE8CFF1
:10190000DF91CF910895CF92DF92FF920F931F93B3
:10191000CF93DF931F92CDB7DEB76C0181E0D60184
:1019200058968C9358975B969C915B975C968C919C
:101930005C97981307C05096ED91FC915197808168
:1019400085FD2DC0F601038D10E00F5F1F4F0F7353
:101950001127F02EF601848DF81210C00FB607FC87
:10196000F9CFD6015096ED91FC915197808185FF7A
:10197000F1CFC601698385DF6981ECCF838DE80FE4
:10198000F11DE35AFF4F6083D6015B960C935B9782
:101990005296ED91FC915397808180620CC0D601E4
:1019A0005696ED91FC91579760835096ED91FC917E
:1019B000519780818064808381E090E00F90DF9177
:1019C000CF911F910F91FF90DF90CF900895BF921C
:1019D000CF92DF92EF92FF92CF93DF93EC016A01F7
:1019E0007B01B22EE889F98982E08083411581EE7E
:1019F00058076105710599F060E079E08DE390E0AA
:101A0000A7019601DFD321503109410951095695AB
:101A1000479537952795211580E1380790F0E8899B
:101A2000F989108260E874E88EE190E0A7019601E0
:101A3000C9D3215031094109510956954795379528
:101A40002795EC85FD853083EE85FF852083188EF4
:101A5000EC89FD89B082EA89FB898081806180837D
:101A6000EA89FB89808188608083EA89FB8980819B
:101A700080688083EA89FB8980818F7D8083DF9104
:101A8000CF91FF90EF90DF90CF90BF9008951F927D
:101A90000F920FB60F9211240BB60F922F938F93C4
:101AA0009F93EF93FF93E0917603F091770380810A
:101AB000E0917C03F0917D0382FD12C090818091C2
:101AC0007F038F5F8F7320918003821751F0E09125
:101AD0007F03F0E0EA59FC4F958F80937F0301C0AC
:101AE0008081FF91EF919F918F912F910F900BBE6D
:101AF0000F900FBE0F901F9018951F920F920FB668
:101B00000F9211240BB60F922F933F934F935F9335
:101B10006F937F938F939F93AF93BF93EF93FF93B5
:101B200086E693E0AEDEFF91EF91BF91AF919F917A
:101B30008F917F916F915F914F913F912F910F9076
:101B40000BBE0F900FBE0F901F90189586E693E086
:101B50002FDE21E0892B09F420E0822F08951092D6
:101B600069031092680388EE93E0A0E0B0E08093F0
:101B70006A0390936B03A0936C03B0936D0383E4AB
:101B800092E0909367038093660385EC90E09093D6
:101B900073038093720384EC90E0909375038093B9
:101BA000740380EC90E0909377038093760381EC4C
:101BB00090E0909379038093780382EC90E0909387
:101BC0007B0380937A0386EC90E090937D0380936F
:101BD0007C0310927F031092800310928103109275
:101BE00082030895CF92DF92EF92FF920F931F939B
:101BF000CF93DF937C016A01EB0100E010E00C154C
:101C00001D0571F06991D701ED91FC910190F08172
:101C1000E02DC7011995892B19F00F5F1F4FEFCFEA
:101C2000C801DF91CF911F910F91FF90EF90DF904E
:101C3000CF9008956115710581F0DB010D900020B2
:101C4000E9F7AD0141505109461B570BDC01ED91FD
:101C5000FC910280F381E02D199480E090E00895DA
:101C6000EF92FF920F931F93CF93DF938C017B0131
:101C7000C0E0D0E0F701EC0FFD1F6491662359F03E
:101C8000F801A081B181ED91FC91C8011995892BD2
:101C900011F02196EFCFCE01DF91CF911F910F91DF
:101CA000FF90EF900895C6CF6FE472E0C3CF0F931B
:101CB0001F93CF93DF93EC01D3DF8C01CE01F4DFD0
:101CC000800F911FDF91CF911F910F9108950F9376
:101CD0001F93CF93DF93EC01ADDF8C01CE01E4DFE6
:101CE000800F911FDF91CF911F910F9108958F92D7
:101CF0009F92AF92BF92DF92EF92FF920F931F934A
:101D0000CF93DF93CDB7DEB7A1970FB6F894DEBFC0
:101D10000FBECDBF7C01F42FD52ECB0119A22230EE
:101D200008F42AE08E010F5D1F4F822E912CA12C0A
:101D3000B12C6F2F7D2DA501940144D2F22FD32E0B
:101D4000CA01015011096A3014F4E0E301C0E7E36D
:101D5000E60FD801EC93232B242B252B51F7B80148
:101D6000C70168DFA1960FB6F894DEBF0FBECDBFE6
:101D7000DF91CF911F910F91FF90EF90DF90BF9077
:101D8000AF909F908F9008952115310541F4DC01AB
:101D9000ED91FC910190F081E02D642F1994A7CF73
:101DA0009A01462F50E060E070E0EECF0F931F9352
:101DB000CF93DF93EC019A01462F50E060E070E092
:101DC000E3DF8C01CE0170DF800F911FDF91CF9197
:101DD0001F910F9108950F931F93CF93DF93EC0101
:101DE0006DDB688779878A879B87E881F981068020
:101DF000F781E02DCE01199597FF14C05FDB0885B0
:101E000019852A853B85601B710B820B930B0C8116
:101E10001D812E813F81601771078207930728F388
:101E20008FEF9FEFDF91CF911F910F910895FC01EC
:101E300044835583668377830895EF92FF920F93CF
:101E40001F93CF93DF93EC018B01E42E61E572E0E9
:101E50007FD0C801C0DFFF24E7FCF09497FD09C0E4
:101E60008E159F0531F0682FCE0123D1C801B3DF55
:101E7000F5CFCE01DF91CF911F910F91FF90EF90A1
:101E80000895FC018081918196C2CF93DF93EC018C
:101E900088819981009709F08ED2198218821D825B
:101EA0001C821B821A82DF91CF9108950F931F939A
:101EB000CF93DF93EC018B016F5F7F4F8881998116
:101EC00009D3009731F0998388831B830A8381E0CB
:101ED00001C080E0DF91CF911F910F910895CF93C2
:101EE000DF93EC0188819981892B29F08A819B817C
:101EF0008617970758F4CE01D9DF882341F08C81EB
:101F00009D81892B19F4E881F981108281E0DF91AC
:101F1000CF910895EF92FF920F931F93CF93DF938A
:101F2000EC017B018A01BA01DADF811103C0CE0125
:101F3000ACDF06C01D830C83B70188819981F7D47B
:101F4000CE01DF91CF911F910F91FF90EF900895F7
:101F5000FC01118210821382128215821482611593
:101F6000710551F0FB0101900020E9F7AF014150EC
:101F70005109461B570BCECF08950F931F93CF9354
:101F8000DF938C01EB01FC0180819181009789F046
:101F9000428153812C813D814217530748F068816B
:101FA0007981C5D48C819D81F8019583848312C089
:101FB00002D288819981F801918380838A819B81F3
:101FC000938382838C819D81958384831982188277
:101FD0001B821A821D821C82DF91CF911F910F916B
:101FE0000895CF93DF93EC01FB018617970751F01B
:101FF000608171816115710521F0448155818ADF0D
:1020000001C043DFCE01DF91CF910895FC01118221
:1020100010821382128215821482E3CFCF93DF9352
:10202000EC018617970709F0A8DFCE01DF91CF9169
:102030000895CF93DF93EC016115710559F0FB0111
:1020400001900020E9F7AF0141505109461B570BA1
:1020500061DF01C01ADFCE01DF91CF910895EF92C9
:10206000FF920F931F93CF93DF93EC017B010C81C1
:102070001D816115710511F480E014C041155105F1
:1020800081F0040F151FB8012ADF8823A9F32881E6
:1020900039818C819D81B701820F931F48D41D83A4
:1020A0000C8381E0DF91CF911F910F91FF90EF9012
:1020B0000895CF93DF931F921F92CDB7DEB7698348
:1020C0001A8241E050E0BE016F5F7F4FC8DF0F9082
:1020D0000F90DF91CF910895FC018481958168175D
:1020E000790720F480819181009729F410920304EC
:1020F00083E094E00895860F971F0895BF92CF92D2
:10210000DF92EF92FF920F931F93CF93DF936C01B7
:102110007B01EA0189012417350720F48D2FE9019D
:10212000042F182F61E572E0C60112DFD701149663
:102130008D919C911597C817D907C0F48017910706
:1021400008F48C01D701ED91FC911197E00FF11F7C
:10215000B08010826D917C916C0F7D1FC60169DF8C
:10216000D701ED91FC91E00FF11FB082C601DF9124
:10217000CF911F910F91FF90EF90DF90CF90BF9084
:1021800008950895CAD9FDDF0E94EE04C5E0DCE0A1
:102190000E94DF052097E1F338DBFACFAA1BBB1BB7
:1021A00051E107C0AA1FBB1FA617B70710F0A61B57
:1021B000B70B881F991F5A95A9F780959095BC0178
:1021C000CD010895A1E21A2EAA1BBB1BFD010DC073
:1021D000AA1FBB1FEE1FFF1FA217B307E407F507D7
:1021E00020F0A21BB30BE40BF50B661F771F881FB3
:1021F000991F1A9469F760957095809590959B0149
:10220000AC01BD01CF010895052E97FB16F4009493
:102210000FD057FD05D0D6DF07FC02D046F408C02A
:1022200050954095309521953F4F4F4F5F4F089502
:1022300090958095709561957F4F8F4F9F4F089532
:10224000EE0FFF1F0590F491E02D19940DD0A59F7E
:10225000900DB49F900DA49F800D911D11240895A1
:102260000790F691E02D1994A29FB001B39FC00191
:10227000A39F700D811D1124911DB29F700D811DB2
:102280001124911D0895CF93DF938230910510F4AE
:1022900082E090E0E0910604F091070420E030E055
:1022A000A0E0B0E0309739F14081518148175907DB
:1022B000B8F04817590771F482819381109729F07B
:1022C00013969C938E9312972CC09093070480933F
:1022D000060427C02115310531F04217530718F0C5
:1022E000A901DB0101C0EF019A01BD01DF010280FC
:1022F000F381E02DD7CF21153105F9F0281B390BDB
:102300002430310580F48A819B816115710521F0AB
:10231000FB019383828304C0909307048093060497
:10232000FE01329644C0FE01E20FF31F81939193A8
:1023300022503109398328833AC020910404309116
:102340000504232B41F420910202309103023093C3
:10235000050420930404209100023091010221150C
:10236000310541F42DB73EB740910402509105026A
:10237000241B350BE0910404F0910504E217F307E8
:10238000A0F42E1B3F0B2817390778F0AC014E5FE5
:102390005F4F2417350748F04E0F5F1F5093050419
:1023A000409304048193919302C0E0E0F0E0CF01F8
:1023B000DF91CF910895CF93DF93009709F487C001
:1023C000FC01329713821282C0910604D091070457
:1023D000209781F420813181280F391F80910404D6
:1023E000909105048217930779F5F0930504E09323
:1023F00004046DC0DE0120E030E0AE17BF0750F4EA
:1024000012964D915C9113979D014115510509F16B
:10241000DA01F3CFB383A28340815181840F951FEA
:102420008A179B0771F48D919C911197840F951FCA
:1024300002969183808312968D919C91139793833A
:1024400082832115310529F4F0930704E0930604F3
:102450003EC0D9011396FC93EE9312974D915D9176
:10246000A40FB51FEA17FB0779F480819181840FCF
:10247000951F0296D90111969C938E938281938128
:1024800013969C938E931297E0E0F0E08A819B81F3
:10249000009719F0FE01EC01F9CFCE0102962881D8
:1024A0003981820F931F209104043091050428176D
:1024B000390769F4309729F4109207041092060442
:1024C00002C013821282D0930504C0930404DF91EA
:1024D000CF9108956F927F928F929F92AF92BF9209
:1024E000CF92DF92EF92FF920F931F93CF93DF93E0
:1024F000EC01CB01209779F4DF91CF911F910F91DF
:10250000FF90EF90DF90CF90BF90AF909F908F9013
:102510007F906F90B8CEFE01E60FF71F9E0122500C
:102520003109E217F30708F4A8C0D9010D911C91F5
:10253000119706171707B0F00530110508F49BC076
:10254000A801445051094617570708F494C0025097
:102550001109061B170B019311936D937C93CF0107
:102560002ADF89C05B01A01AB10A4E01800E911EBC
:10257000A0910604B0910704612C712C60E070E01A
:10258000109709F449C0A815B905C9F5ED90FC905C
:102590001197670142E0C40ED11CCA14DB0478F124
:1025A00047018A189B08640142E0C40ED11C1296B0
:1025B000BC9012971396AC91B5E0CB16D10440F0C5
:1025C000B282A38391828082D9018D939C9309C0AA
:1025D0000E5F1F4F0E0D1F1DF90111830083EB2DA0
:1025E000FA2F6115710531F0DB011396FC93EE9320
:1025F000129741C0F0930704E09306043CC06D912C
:102600007C9111976616770608F43B01BD0112967E
:102610000D90BC91A02DB4CF60910404709105047D
:1026200068157905E9F468167906D0F4409100023E
:10263000509101024115510541F44DB75EB76091CB
:10264000040270910502461B570BE417F507A8F426
:10265000F0930504E0930404F901918380830BC097
:1026600012DE7C01009749F0A801BE0150D1CE01D5
:10267000A2DEC70104C0CE0102C080E090E0DF917D
:10268000CF911F910F91FF90EF90DF90CF90BF906F
:10269000AF909F908F907F906F9008952F923F9270
:1026A0005F926F927F928F929F92AF92BF92CF92E2
:1026B000DF92EF92FF920F931F93CF93DF938B01E3
:1026C000EA016115710521F0DB018C9311969C9351
:1026D000209739F09E01225031092332310508F04C
:1026E000F8C07C016701BFEFCB1ADB0A5601F70186
:1026F0006080862D90E003D1892B11F07601F2CF16
:10270000FDE26F120AC0570182E0A80EB11CD7018A
:1027100011966C90772473940BC0BBE26B1207C0C8
:102720005701E2E0AE0EB11CD70111966C90712CEE
:10273000CE018F7E892B89F4B0E36B1222C0F501A4
:1027400080818F7D883541F56180F2E0AF0EB11C4C
:10275000872D8260782EC0E1D0E0C830D105F1F03D
:102760004CF4C230D10511F5C12CD12CE12CB0E4D0
:10277000FB2E2EC0CA30D10531F0C031D10519F180
:1027800015C0209751F7CAE0D0E0ACECCA2EDC2C83
:10279000EC2CACE0FA2E1CC02097F9F6C8E0D0E093
:1027A000C12CD12CE12CF0E1FF2E12C060E070E0D2
:1027B00080E090E89E01442737FD4095542F02DDCC
:1027C00069017A0105C0C12CD12CE12CE8E0FE2E74
:1027D000F50160E020E030E0A9014E01AA2497FC59
:1027E000A094BA2C1F0170ED572E560CA9E0A51528
:1027F00070F48FEB860D8A3118F499EC592E06C0CF
:102800008FE9860D8A3128F589EA582E560C852DD8
:1028100090E08C179D07ECF467FD17C0C216D30635
:10282000E406F50678F0C501B401A1D09B01AC0126
:10283000250D311D411D511D213031054105B0E8E7
:102840005B0710F06FEF01C061E03196D1016C9031
:10285000C9CF872D81700115110571F0662329F00C
:102860003197D801ED93FC9307C071FE19C03297E0
:10287000D801ED93FC9314C067FF12C0882329F0A0
:1028800020E030E040E050E804C02FEF3FEF4FEF92
:102890005FE782E290E0909309048093080416C0F9
:1028A000882341F050954095309521953F4F4F4FEB
:1028B0005F4F0CC057FF0AC082E290E0909309047A
:1028C000809308042FEF3FEF4FEF5FE7B901CA0194
:1028D00004C060E070E080E090E0DF91CF911F9154
:1028E0000F91FF90EF90DF90CF90BF90AF909F90AF
:1028F0008F907F906F905F903F902F9008959111EF
:1029000033C0803219F089508550D0F70895FB010B
:10291000DC0102C001900D9241505040D8F708955B
:10292000DC0101C06D9341505040E0F70895FB0178
:10293000DC0101900D920020E1F70895F999FECF96
:1029400092BD81BDF89A992780B50895262FF999EF
:10295000FECF1FBA92BD81BD20BD0FB6F894FA9A82
:10296000F99A0FBE01960895992788270895DB01EB
:102970008F939F936BDCBF91AF91A29F800D911DB0
:10298000A39F900DB29F900D1124089512E0C0EA0C
:10299000D2E000E005C022970109FE010BBF60DC18
:0E29A000C23AD10780E00807B1F7F894FFCFE4
:1029AE0000000A048000FFFF0F004F6E2072656367
:1029BE006569766500456E64207265636569766546
:1029CE00004573746167696F0070726F636573732E
:1029DE00004C524300546F74616C3A0001020500C2
:1029EE00000000830CF20DD80BF10BE30B620C0D03
:1029FE000A006E616E00696E66006F7666002E00CC
:00000001FF
